:1000000010C02AC029C028C027C026C025C024C0CF
:1000100023C022C021C0BFC91FC01EC0B2CA1CC09D
:100020001BC011241FBECFE5D2E0DEBFCDBF10E064
:10003000A0E6B0E0E8E2F7E103C0C89531960D9282
:10004000A83EB107D1F711E0A8EEB0E001C01D92C3
:10005000AD3EB107E1F701C0D3CF0BD0EEDA80910E
:1000600028018130E1F7B0D0109228011092E3000E
:10007000F6CF10922901109228011092E300089502
:10008000DF92EF92FF920F931F93CF93DF93082F8E
:10009000192F6BD9D82ED12FC02F2196EE2426C030
:1000A0008C2F9D2F62D9F82E8C2F9D2F01965DD914
:1000B000082F1127102F00278C2F9D2F029655D91E
:1000C000EF2DFF27EE0FFF1FE959FF4F99270190F2
:1000D000F081E02D802B912B0995882319F480E085
:1000E00090E008C0823021F02396E394ED14C1F62D
:1000F00081E090E0DF91CF911F910F91FF90EF9001
:10010000DF900895CF92DF92EF92FF920F931F93AB
:10011000CF93DF9380E090E028D9C82EDD24C1E0A2
:10012000D0E031C08C2F9D2F20D9E82E8091E300A4
:10013000E81631F08E2D99270396C80FD91F22C0DB
:100140000C2F1D2F0F5F1F4FFF2414C0CF2DDD2755
:10015000912F802F8C0F9D1F08D9282F8F3549F0A4
:100160008091E6009091E700C80FD91F8881281779
:1001700021F4F394FE1451F70BC0D12FC02F229617
:10018000CE0DD11DD394DC1469F680E090E013C04D
:100190000E0D111DE02EF12E912F802FE6D8082F85
:1001A0001127102F00279F2D8E2D0196DED8080FC6
:1001B000111D912F802FDF91CF911F910F91FF90F3
:1001C000EF90DF90CF9008959DDF009701F158DF09
:1001D000882319F081E090E0089520E030E0A0E667
:1001E000B0E0E091E600F091E700E20FF31F8D919F
:1001F00080832F5F3F4F2630310599F786E080934B
:10020000E30080DF009719F03BDF9927089580E035
:1002100090E00895AAD8E8EEF0E0E80FF11D83E041
:10022000808381E090E00895AF92BF92CF92DF92F9
:10023000EF92FF920F931F93CF93DF93E82EF92E47
:1002400094D8082F11279F2D8E2D02968ED8A82E78
:10025000BB2408511F4FF12FE02FC08001819F2D3B
:100260008E2D019682D8E82FFF27E851FF4F40815D
:100270001127302F2227DD242C293D29DB2DCA2DE3
:10028000C351DF4F00E010E0FB2DEA2DE41BF10924
:10029000E851FF4F8EE2E82E401721F4442311F07D
:1002A000E5820EC0932F822F6AE070E000DA805D55
:1002B0008883932F822F6AE070E0F9D9262F372F99
:1002C0000F5F1F4F21970630110531F781E090E055
:1002D000DF91CF911F910F91FF90EF90DF90CF9022
:1002E000BF90AF900895EF92FF920F931F93E82E67
:1002F000F92E3BD808EE10E0F12FE02FE80FF11DAA
:1003000010829F2D8E2D31D8080F111DF12FE02F57
:10031000118281E090E01F910F91FF90EF9008957E
:10032000CF92DF92EF92FF920F931F93CF93DF93C1
:10033000D92FC82F1AD8E82FFF27E851FF4F808107
:100340008823A9F40C2F1D2F0C5F1F4F912F802F96
:100350000CD8E82FFF27E851FF4F1082912F802FF4
:1003600004D8E82FFF27E851FF4F118275C08C2F6A
:100370009D2F0196FAD7E82FFF27E851FF4F1081F4
:100380008C2F9D2F0296F1D7E82FFF27E851FF4FC2
:10039000C0808C2F9D2F0396E8D7E82FFF27E851C8
:1003A000FF4F3081193070F4812F992767E070E09A
:1003B00060D9F92FE82FE755FF4F8281C81610F456
:1003C000381710F082E003C0C31630F081E080934C
:1003D000290180E090E042C045815681232F2C19ED
:1003E000EE24FF24002711270FC0EC2DFF27EE0F6E
:1003F000FF1FE40FF51F80819181AA27BB27E80E1C
:10040000F91E0A1F1B1FC3943C1578F72F5F332773
:1004100044275527912F802F7F2D6E2D5ED9E22EF8
:10042000F32E042F152F34E0C32ED12CCC0EDD1E5D
:100430009D2D8C2D9AD7E82FFF27E851FF4FE082A2
:100440009D2D8C2D92D7E82FFF27E851FF4FEF2CE1
:10045000F02E012F1127E18281E090E0DF91CF9112
:100460001F910F91FF90EF90DF90CF9008950F9321
:100470001F93CF93DF93D92FC82F77D7E82FFF276C
:10048000E851FF4F80812C2F3D2F2D5F3F4F882358
:1004900049F4932F822F69D7E82FFF27E851FF4FA8
:1004A00010821DC0932F822F60D7082F8C2F9D2F75
:1004B00001965BD7E82FFF27E851FF4F10818C2F63
:1004C0009D2F029652D7A02FBB27A851BF4FE82FD0
:1004D000FF27E851FF4F6081812FDDD88C9381E0A9
:1004E00090E0DF91CF911F910F9108951F93CF93CB
:1004F000DF93D92FC82F39D7E82FFF27E851FF4FB7
:100500001081193030F082E08093290180E090E082
:1005100017C08C2F9D2F019628D7E82FFF27E85171
:10052000FF4F812F992767E070E0A3D8B92FA82F3C
:10053000A755BF4FDB2FCA2F8A81808381E090E0CF
:10054000DF91CF911F910895DF92EF92FF920F9369
:100550001F93CF93DF93E82EF92EDD2400E010E007
:10056000D92FC82FD6948C2F9D2FFFD6E82FFF2789
:10057000E851FF4F8081882311F080E8D82A0F5F6F
:100580001F4F21960830110569F79F2D8E2D089673
:10059000ECD6E82FFF27E851FF4FD08281E090E0B2
:1005A000DF91CF911F910F91FF90EF90DF90089511
:1005B000EF92FF920F931F93082F192FD6D6E82F93
:1005C000FF27E851FF4FF0800F5F1F4F71E0E72ECC
:1005D000912F802FCAD6E82FFF27E851FF4F8F2D8C
:1005E00081708083F694E3940F5F1F4F89E0E816D3
:1005F00079F781E090E01F910F91FF90EF900895BF
:100600000F931F93CF93DF93082F192F0196ADD629
:10061000C82FDD27912F802FA8D6A82FBB27FB2F0F
:10062000EA2FE851FF4F8081282F22952F70982FB5
:100630009F709A3010F4905D07C0892F8A508630E1
:1006400010F090E001C0995C2A3018F4822F805D90
:1006500008C0822F8A50863010F080E002C0822FBE
:10066000895CFD2FEC2FE851FF4F82839383A851C3
:10067000BF4FFB2FEA2F8181982F92959F70E82F13
:10068000EF70EA3018F42E2F205D08C08E2F8A50AC
:10069000863010F020E002C02E2F295C9A3018F42A
:1006A000892F805D08C0892F8A50863010F080E045
:1006B00002C0892F895CFD2FEC2FE851FF4F80830A
:1006C000218381E090E0DF91CF911F910F910895F8
:1006D000FF920F931F93082F192F47D6F82E912FB3
:1006E000802F019642D6382FEF2DFF27E851FF4F7C
:1006F0009381292F20532A3028F0892F8154863066
:1007000070F527509281892F80538A3020F08151D3
:10071000863028F5865FA32FBB27A851BF4F82954F
:10072000807F822B8C939181292F20532A3028F0AF
:10073000892F8154863098F427509081892F8053D7
:100740008A3020F08151863050F4865F8295807F18
:10075000822BFB2FEA2F818381E090E005C081E0AE
:100760008093290180E090E01F910F91FF90089500
:10077000FCD5E8EEF0E0E80FF11D88E0808381E031
:1007800090E00895F2D5E82FFF27E851FF4F8081D0
:10079000882319F481E090E0089583E08093290193
:1007A00080E090E008951F93CF93DF93D92FC82F57
:1007B0000296DBD5E82FFF27E851FF4F8081882381
:1007C00009F44AC08C2F9D2FD0D5E82FFF27E85180
:1007D000FF4F10811930B8F48C2F9D2F0196C5D58D
:1007E000E82FFF27E851FF4F2081812F992767E0ED
:1007F00070E03FD7B92FA82FA755BF4FFB2FEA2F87
:100800008281821730F482E08093290180E090E0B9
:1008100025C0FB2FEA2F6481822F22D7982FA58134
:10082000B6811FEF0EC08C91182780E021E317FFDF
:1008300003C0110F122701C0110F8F5F8830B9F765
:100840001196915080F78C2F9D2F04968ED5E82F0E
:10085000FF27E851FF4F108381E090E0DF91CF91B7
:100860001F9108951F93CF93DF93D92FC82F02961E
:100870007CD5182F8C2F9D2F78D5E82FFF27E85196
:10088000FF4F8081882371F08C2F9D2F01966DD5AD
:10089000E82FFF27E851FF4F8081882319F081E07E
:1008A00090E002C080E090E0E12FFF27E851FF4F89
:1008B000808381E090E0DF91CF911F910895EF92C6
:1008C000FF920F931F93CF93DF93082F192F4DD5CE
:1008D000E82FFF27E851FF4FF080912F802F0396DC
:1008E00044D5E82FFF27E851FF4FF082912F802F4A
:1008F00001963BD5E82FFF27E851FF4F80818823E1
:1009000009F442C028E02F1530F482E080932901D9
:1009100080E090E03BC08F2D992767E070E0A9D67A
:10092000F92FE82FE755FF4F058116818281E02ED0
:10093000F12E41E050E0992724C0DF2DCE2D6A81B1
:100940007B81F52FE42F3197BF2DAE2D05C0DB2F16
:10095000CA2F3D832C833197F7FD07C02D913C9121
:10096000119712976217730790F3EE0FFF1FE00FB6
:10097000F11F738362834F5F5F4FE2E0F0E0EE0EA2
:10098000FF1E48175907CCF281E090E0DF91CF912C
:100990001F910F91FF90EF900895E7D4E8EEF0E0FB
:1009A000E80FF11D80912901808381E090E0089596
:1009B000FF920F931F93082F192F0196D6D4F82E6C
:1009C000912F802FD2D4AF2DBB27A851BF4F90E0DD
:1009D000E82FFF27E851FF4F8081882309F491E039
:1009E0009C9381E090E01F910F91FF900895BDD4FA
:1009F000E82FFF27E851FF4F8081882319F082E01C
:100A000090E0089581E090E008950F931F93CF93B5
:100A1000DF93D92FC82FA9D4E82FFF27E851FF4F24
:100A200010818C2F9D2F0196A0D400E0E82FFF2786
:100A3000E851FF4F8081181709F401E08C2F9D2F9A
:100A4000029693D4E82FFF27E851FF4F008381E0FF
:100A500090E0DF91CF911F910F91089586D4E8EE39
:100A6000F0E0E80FF11D82E0808381E090E00895DE
:100A70007CD4E8EEF0E0E80FF11D81E0808381E0B6
:100A800090E0089572D4E8EEF0E0E80FF11D1082D6
:100A900081E090E00895FF920F931F93082F192F84
:100AA000019663D4F82E912F802F5FD4E82FFF2773
:100AB000E851FF4F8081282F22952F70982F9F702B
:100AC0009A3010F4905D07C0892F8A50863010F05C
:100AD00090E001C0995C2A3018F4822F805D08C034
:100AE000822F8A50863010F080E002C0822F895C0D
:100AF000EF2DFF27E851FF4F8083918381E090E045
:100B00001F910F91FF9008950F931F93CF93DF9341
:100B1000D92FC82F2AD4E82FFF27E851FF4F918102
:100B2000092F00530A3028F0892F81548630D0F4E1
:100B300007509081192F10531A3028F0892F8154B3
:100B4000863080F417508C2F9D2F01960ED4E82FFD
:100B5000FF27E851FF4F1295107F102B108381E083
:100B600090E005C081E08093290180E090E0DF9172
:100B7000CF911F910F910895CF92DF92EF92FF9244
:100B80000F931F93E82EF92E0296EFD3C82E9F2DB8
:100B90008E2DEBD308EE10E0F12FE02FE80FF11DC2
:100BA000D0809F2D8E2D0196E0D3F12FE02FEC0DFC
:100BB000F11D080F111DB12FA02F8C91D81AD082D2
:100BC00081E090E01F910F91FF90EF90DF90CF9028
:100BD0000895CF92DF92EF92FF920F931F93E82E2A
:100BE000F92E0296C2D3C82E9F2D8E2DBED308EEAD
:100BF00010E0F12FE02FE80FF11DD0809F2D8E2DFA
:100C00000196B3D3F12FE02FEC0DF11D080F111D4C
:100C1000B12FA02F8C91D80ED08281E090E01F914F
:100C20000F91FF90EF90DF90CF900895EF92FF9299
:100C30000F931F93CF93DF93082F192F96D3E82E8E
:100C4000D12FC02F2196FF2429C08C2F9D2F8DD30B
:100C5000082F8C2F9D2F019688D3182F8C2F9D2F16
:100C6000029683D3682F90E0412F552748515F4F5C
:100C70002091E6003091E700200F311D0BC0E92FD5
:100C8000FF27B52FA42FAE0FBF1FE20FF31F8081E8
:100C90008C939F5F961799F72396F394FE14A9F609
:100CA00081E090E0DF91CF911F910F91FF90EF9045
:100CB00008958F929F92AF92BF92CF92DF92EF9260
:100CC000FF920F931F93CF93DF93882E992E4DD3CE
:100CD000E82FFF27E851FF4F8081D92DC82D22969C
:100CE000882341F5192D082D0D5F1F4F912F802F5F
:100CF0003CD3F82E8C2F9D2F38D3AF2DBB27A85176
:100D0000BF4FE82FFF27E851FF4F80818C93912F31
:100D1000802F2BD3082F8C2F9D2F27D3A02FBB27BD
:100D2000A851BF4FE82FFF27E851FF4F8181FB2FCC
:100D3000EA2F67C0992D882D019617D3E82FFF273A
:100D4000E851FF4FF0808C2F9D2F0FD3E82FFF2706
:100D5000E851FF4F81819927B82EAA248C2F9D2F0F
:100D600004D3E82FFF27E851FF4F80819927A82A55
:100D7000B92A1B2D0A2D000F012F001F110B1195F1
:100D8000C02EDD248F2D992769E070E072D4D92F11
:100D9000C82FCC0DDD1DCC0FDD1F8C2F9D2F4E9647
:100DA0008DD3E82EF92E0830B8F48C2F9D2F809625
:100DB00085D38E199F09D694DC2CCC24D794C79464
:100DC000AC18BD08880F892F881F990B91957B2D32
:100DD0006A2D4FD4E80EF91E192D082D0D5F1F4FF7
:100DE000912F802FC2D2E82FFF27E851FF4FE082DA
:100DF000912F802FBAD2E82FFF27E851FF4F8F2D78
:100E00009927818381E090E0DF91CF911F910F912D
:100E1000FF90EF90DF90CF90BF90AF909F908F901A
:100E20000895BF92CF92DF92EF92FF920F931F939C
:100E3000CF93DF93D92FC82F019697D2E82FFF27A2
:100E4000E851FF4FB0808C2F9D2F02968ED2E82F55
:100E5000FF27E851FF4F00818C2F9D2F86D2E82F6E
:100E6000FF27E851FF4F8081882309F47FC0C02EFF
:100E7000DD24C0FE19C08C2F9D2F039676D2E82F5B
:100E8000FF27E851FF4F21813327322F222780810E
:100E90009927282B392B8B2D992767E070E0E9D310
:100EA000732F622F049611D3C1FE19C08C2F9D2F72
:100EB00004965BD2E82FFF27E851FF4F21813327AB
:100EC000322F222780819927282B392B8B2D992788
:100ED00067E070E0CED3732F622F0296F6D2C2FE87
:100EE00020C08C2F9D2F059640D2E82F8B2D99275F
:100EF00067E070E0BED3082F192F56E0E52EF12CE5
:100F0000E80EF91EFF27E851FF4F60819F2D8E2DBF
:100F1000CFD29F2D8E2DC5D207551F4FF12FE02F19
:100F20008283C3FE10C08C2F9D2F06961ED2E82F01
:100F3000FF27E851FF4F8B2D992767E070E099D389
:100F400060810796B5D2C4FE62C08C2F9D2F079694
:100F50000CD2E82FFF27E851FF4F8B2D992767E030
:100F600070E087D360810896A3D251C08C2F9D2F4B
:100F70000996FBD1E82E8B2D992767E070E079D395
:100F8000082F192F04969AD2EE2DFF27E851FF4F14
:100F90008083892F992781838C2F9D2F0A96E5D1F5
:100FA000E82E912F802F029689D2EE2DFF27E8514F
:100FB000FF4F8083892F992781838C2F9D2F0B963C
:100FC000D4D1E82E912F802F06966BD2EE2DFF27DD
:100FD000E851FF4F80838C2F9D2F0C96C6D1E82EB1
:100FE000912F802F07965DD2EE2DFF27E851FF4FFE
:100FF00080838C2F9D2F0D96B8D1E82E912F802FB6
:1010000008964FD2EE2DFF27E851FF4F808381E0F5
:1010100090E0DF91CF911F910F91FF90EF90DF90C3
:10102000CF90BF9008951F93CF93DF93D92FC82FF0
:101030009CD1E82FFF27E851FF4F8081882371F072
:101040008C2F9D2F019691D1E82FFF27E851FF4F5C
:101050001081612F81E090E02BD204C081E090E00C
:1010600020D2182F8C2F9D2F03967FD1E82FFF279A
:10107000E851FF4F108381E090E0DF91CF911F9105
:1010800008951F93CF93DF93D92FC82F6ED1E82FE8
:10109000FF27E851FF4F8081882329F480E090E00A
:1010A00000D2182F0DC08C2F9D2F01965ED1E82FF6
:1010B000FF27E851FF4F1081612F80E090E0F8D1C9
:1010C0008C2F9D2F039651D1E82FFF27E851FF4F1A
:1010D000108381E090E0DF91CF911F910895CF932D
:1010E000DF93D92FC82F41D1E82FFF27E851FF4FB9
:1010F0008081882341F03AD2882341F081E090E05A
:10110000D0D10BD258C032D2882331F484E08093FE
:10111000290180E090E051C08C2F9D2F039625D1AE
:10112000E82FFF27E851FF4F10828C2F9D2F049648
:101130001CD1E82FFF27E851FF4F81E080838C2FDF
:101140009D2F059612D1E82FFF27E851FF4F82E02F
:1011500080838C2F9D2F069608D1E82FFF27E8511A
:10116000FF4F83E080838C2F9D2F0796FED0E82FC2
:10117000FF27E851FF4F84E080838C2F9D2F089636
:10118000F4D0E82FFF27E851FF4F85E080838C2FB4
:101190009D2F0996EAD0E82FFF27E851FF4F86E000
:1011A00080838C2F9D2F0A96E0D0E82FFF27E851EF
:1011B000FF4F87E0808381E090E0DF91CF91089539
:1011C000BF92CF92DF92EF92FF920F931F93CF9334
:1011D000DF93082F192FC9D0B82EE02EF12E0894D6
:1011E000E11CF11CCC24ABC09F2D8E2DBED0082F4E
:1011F0009F2D8E2D0196B9D0182F9F2D8E2D0296E2
:10120000B4D0D82E112369F409C0E02FFF27E8518C
:10121000FF4FE10FF11D808104D11F5F1D15A9F75C
:1012200089C0123009F082C0E02FFF27E851FF4F3C
:101230002081C22FDD278C2F9D2F67E070E019D20F
:10124000B92FA82FA755BF4FFB2FEA2F84818130DC
:1012500011F4028108C0823011F000E004C0FB2FBD
:10126000EA2F0281000F293040F082E080932901AB
:101270008DE0D7D080E090E069C08C2F9D2F67E093
:1012800070E0F7D1F92FE82FE755FF4F80818823D1
:1012900011F410E048C0DD2432C08C2F9D2F67E090
:1012A00070E0E7D1F92FE82FE755FF4F0580F68171
:1012B000E02DED0DF11D8081982F9F70282F229534
:1012C0002F709A3018F4192F105D08C0892F8A509A
:1012D000863010F010E002C0192F195C2A3018F483
:1012E000822F805D08C0822F8A50863010F080E007
:1012F00002C0822F895C95D0812F93D0D394D016D1
:1013000061F618C08C2F9D2F67E070E0B2D1F92FE5
:10131000E82FE755FF4F0580F681E02DE10FF11D25
:1013200080817FD01F5F101769F704C0113011F45E
:10133000802F77D083E090E0E80EF91EC394CB14A1
:1013400009F052CF8DE06DD081E090E0DF91CF9138
:101350001F910F91FF90EF90DF90CF90BF90089575
:1013600080EA87BB80E58DB90895282F392F832F18
:1013700099278FB9779BFECF2FB9779BFECF8FEF41
:101380008FB9779BFECF8FB1992708958CE089B9EB
:1013900089E98AB908951F920F920FB60F9211240E
:1013A0002F933F934F935F938F939F93EF93FF936D
:1013B0005CB180912801882339F54091E300242F06
:1013C00033278091E20099272817390710F45D3000
:1013D00081F4442351F0E091E600F091E700808130
:1013E000803419F41092E3000FC081E0809328014B
:1013F0000BC0E091E600F091E700E20FF31F50838D
:101400002F5F3F4F2093E300FF91EF919F918F91CA
:101410005F914F913F912F910F900FBE0F901F90B2
:1014200018955D9BFECF8CB90895EDE2F1E0119225
:1014300081E0ED35F807D9F710924C0110924B017D
:1014400088E893E190934E0180934D0180E197E20B
:101450009093500180934F0188E99AE39093520151
:101460008093510180E29EE4909354018093530154
:1014700080E395E7909356018093550188EC9FEAAD
:10148000909358018093570180E593EC90935A0113
:101490008093590180E69AEE90935C0180935B0102
:1014A0000895F92FE82FE35DFE4F80819927089575
:1014B000F92FE82FE35DFE4F60830895F92FE82FA1
:1014C000E35DFE4F808191810895F92FE82FE35D60
:1014D000FE4F71836083089510922A0110922B01B0
:1014E00010922C018FE886B9089580912A01482F27
:1014F000552720912B01273011F420E001C02F5FE8
:10150000952F842F022E02C0959587950A94E2F7B5
:1015100080FFF1CF20932B01089580932A0197E05B
:1015200090932B0110922C0160E020E030E0ECEA77
:10153000F0E0482F5527952F842F022E02C0959555
:1015400087950A94E2F780FD6F5F10822F5F3F4F0F
:1015500037962830310579F760932C01662329F0FE
:10156000C4DF80912B0187B9369A089520E030E0DE
:1015700080912C01882311F421E030E0932F822FF9
:1015800008951F920F920FB60F9211240F931F937D
:101590002F933F934F935F936F937F938F939F937B
:1015A000AF93BF93CF93DF93EF93FF9304B125B134
:1015B0003327322F222780912B01992767E070E093
:1015C00058D0B92FA82FA755BF4FDB2FCA2FEB81BB
:1015D000FF27EE0FFF1F8D819E81E80FF91F112756
:1015E000202B312B318320838B818F5F8B839A81DA
:1015F000891728F080912C01815080932C018091D3
:101600002C01882329F071DF80912B0187B9369A4C
:10161000FF91EF91DF91CF91BF91AF919F918F910A
:101620007F916F915F914F913F912F911F910F91FA
:101630000F900FBE0F901F901895F7DE80EA87BBC2
:1016400080E58DB910922A0110922B0110922C0185
:101650008FE886B98CE089B989E98AB978940895C8
:10166000002480FD060E660F11F08695D1F7802DBF
:1016700008955527002480FF02C0060E571F660FED
:10168000771F6115710521F096958795009799F759
:10169000952F802D0895991B79E004C0991F961706
:1016A00008F0961B881F7A95C9F780950895AA1BA4
:1016B000BB1B51E107C0AA1FBB1FA617B70710F03D
:1016C000A61BB70B881F991F5A95A9F7809590956F
:1016D000682F792F8A2F9B2F0895A1E21A2EAA1B1B
:1016E000BB1BEA2FFB2F0DC0AA1FBB1FEE1FFF1F46
:1016F000A217B307E407F50720F0A21BB30BE40B16
:10170000F50B661F771F881F991F1A9469F760955C
:10171000709580959095262F372F482F592F6A2F37
:081720007B2F8E2F9F2F0895EF
:10172800404552524F52001606E008E905BC0584B0
:10173800054B05420538052E0541080505F704D86F
:1017480004CD045F043204D303C203B8036F081343
:1017580008110768030003D802A402760237029032
:10176800015906730114010A0101100000025D010C
:101778000110000002CD0101100000027D010110DE
:101788000000029D0101100000020000011000008D
:101798000200000110000002000001100000020019
:0817A800000010000001BD016A
:00000001FF
